{
  "_format": "hh-sol-artifact-1",
  "contractName": "Product",
  "sourceName": "contracts/Product.sol",
  "abi": [
    {
      "anonymous": false,
      "inputs": [
        {
          "indexed": true,
          "internalType": "address",
          "name": "previousOwner",
          "type": "address"
        },
        {
          "indexed": true,
          "internalType": "address",
          "name": "newOwner",
          "type": "address"
        }
      ],
      "name": "OwnershipTransferred",
      "type": "event"
    },
    {
      "inputs": [
        {
          "internalType": "uint256",
          "name": "_productNumber",
          "type": "uint256"
        }
      ],
      "name": "buy",
      "outputs": [],
      "stateMutability": "nonpayable",
      "type": "function"
    },
    {
      "inputs": [
        {
          "internalType": "uint256",
          "name": "_productNumber",
          "type": "uint256"
        }
      ],
      "name": "getInfoOfProduct",
      "outputs": [
        {
          "internalType": "enum Product.status",
          "name": "",
          "type": "uint8"
        }
      ],
      "stateMutability": "view",
      "type": "function"
    },
    {
      "inputs": [
        {
          "internalType": "uint256",
          "name": "_string",
          "type": "uint256"
        }
      ],
      "name": "hash",
      "outputs": [
        {
          "internalType": "bytes32",
          "name": "",
          "type": "bytes32"
        }
      ],
      "stateMutability": "pure",
      "type": "function"
    },
    {
      "inputs": [],
      "name": "owner",
      "outputs": [
        {
          "internalType": "address",
          "name": "",
          "type": "address"
        }
      ],
      "stateMutability": "view",
      "type": "function"
    },
    {
      "inputs": [
        {
          "internalType": "bytes32",
          "name": "",
          "type": "bytes32"
        }
      ],
      "name": "productDetail",
      "outputs": [
        {
          "internalType": "enum Product.status",
          "name": "",
          "type": "uint8"
        }
      ],
      "stateMutability": "view",
      "type": "function"
    },
    {
      "inputs": [
        {
          "internalType": "uint256",
          "name": "_productNumber",
          "type": "uint256"
        }
      ],
      "name": "registerProduct",
      "outputs": [],
      "stateMutability": "nonpayable",
      "type": "function"
    },
    {
      "inputs": [],
      "name": "renounceOwnership",
      "outputs": [],
      "stateMutability": "nonpayable",
      "type": "function"
    },
    {
      "inputs": [
        {
          "internalType": "address",
          "name": "newOwner",
          "type": "address"
        }
      ],
      "name": "transferOwnership",
      "outputs": [],
      "stateMutability": "nonpayable",
      "type": "function"
    }
  ],
  "bytecode": "0x608060405234801561001057600080fd5b5061002d61002261003260201b60201c565b61003a60201b60201c565b6100fe565b600033905090565b60008060009054906101000a900473ffffffffffffffffffffffffffffffffffffffff169050816000806101000a81548173ffffffffffffffffffffffffffffffffffffffff021916908373ffffffffffffffffffffffffffffffffffffffff1602179055508173ffffffffffffffffffffffffffffffffffffffff168173ffffffffffffffffffffffffffffffffffffffff167f8be0079c531659141344cd1fd0a4f28419497f9722a3daafe3b4186f6b6457e060405160405180910390a35050565b610b9e8061010d6000396000f3fe608060405234801561001057600080fd5b50600436106100885760003560e01c8063c08e0f961161005b578063c08e0f9614610115578063c880163814610131578063d96a094a14610161578063f2fde38b1461017d57610088565b806330c332b61461008d578063715018a6146100bd5780638da5cb5b146100c7578063b189fd4c146100e5575b600080fd5b6100a760048036038101906100a291906107ab565b610199565b6040516100b491906108f5565b60405180910390f35b6100c56101cb565b005b6100cf6101cd565b6040516100dc91906108bf565b60405180910390f35b6100ff60048036038101906100fa91906107ab565b6101f6565b60405161010c91906108da565b60405180910390f35b61012f600480360381019061012a91906107ab565b610226565b005b61014b60048036038101906101469190610782565b61030e565b60405161015891906108f5565b60405180910390f35b61017b600480360381019061017691906107ab565b61032e565b005b61019760048036038101906101929190610759565b610556565b005b6000600160006101a8846101f6565b815260200190815260200160002060009054906101000a900460ff169050919050565b565b60008060009054906101000a900473ffffffffffffffffffffffffffffffffffffffff16905090565b60008160405160200161020991906108a4565b604051602081830303815290604052805190602001209050919050565b61022e61064e565b73ffffffffffffffffffffffffffffffffffffffff1661024c6101cd565b73ffffffffffffffffffffffffffffffffffffffff16146102a2576040517f08c379a000000000000000000000000000000000000000000000000000000000815260040161029990610970565b60405180910390fd5b60018060006102b0846101f6565b815260200190815260200160002060006101000a81548160ff02191690836002811115610306577f4e487b7100000000000000000000000000000000000000000000000000000000600052602160045260246000fd5b021790555050565b60016020528060005260406000206000915054906101000a900460ff1681565b8060006002811115610369577f4e487b7100000000000000000000000000000000000000000000000000000000600052602160045260246000fd5b60016000610376846101f6565b815260200190815260200160002060009054906101000a900460ff1660028111156103ca577f4e487b7100000000000000000000000000000000000000000000000000000000600052602160045260246000fd5b141561040b576040517f08c379a000000000000000000000000000000000000000000000000000000000815260040161040290610950565b60405180910390fd5b8160016002811115610446577f4e487b7100000000000000000000000000000000000000000000000000000000600052602160045260246000fd5b60016000610453846101f6565b815260200190815260200160002060009054906101000a900460ff1660028111156104a7577f4e487b7100000000000000000000000000000000000000000000000000000000600052602160045260246000fd5b146104e7576040517f08c379a00000000000000000000000000000000000000000000000000000000081526004016104de90610930565b60405180910390fd5b6002600160006104f6866101f6565b815260200190815260200160002060006101000a81548160ff0219169083600281111561054c577f4e487b7100000000000000000000000000000000000000000000000000000000600052602160045260246000fd5b0217905550505050565b61055e61064e565b73ffffffffffffffffffffffffffffffffffffffff1661057c6101cd565b73ffffffffffffffffffffffffffffffffffffffff16146105d2576040517f08c379a00000000000000000000000000000000000000000000000000000000081526004016105c990610970565b60405180910390fd5b600073ffffffffffffffffffffffffffffffffffffffff168173ffffffffffffffffffffffffffffffffffffffff161415610642576040517f08c379a000000000000000000000000000000000000000000000000000000000815260040161063990610910565b60405180910390fd5b61064b81610656565b50565b600033905090565b60008060009054906101000a900473ffffffffffffffffffffffffffffffffffffffff169050816000806101000a81548173ffffffffffffffffffffffffffffffffffffffff021916908373ffffffffffffffffffffffffffffffffffffffff1602179055508173ffffffffffffffffffffffffffffffffffffffff168173ffffffffffffffffffffffffffffffffffffffff167f8be0079c531659141344cd1fd0a4f28419497f9722a3daafe3b4186f6b6457e060405160405180910390a35050565b60008135905061072981610b23565b92915050565b60008135905061073e81610b3a565b92915050565b60008135905061075381610b51565b92915050565b60006020828403121561076b57600080fd5b60006107798482850161071a565b91505092915050565b60006020828403121561079457600080fd5b60006107a28482850161072f565b91505092915050565b6000602082840312156107bd57600080fd5b60006107cb84828501610744565b91505092915050565b6107dd816109a1565b82525050565b6107ec816109b3565b82525050565b6107fb816109fa565b82525050565b600061080e602683610990565b915061081982610a45565b604082019050919050565b6000610831601e83610990565b915061083c82610a94565b602082019050919050565b6000610854601683610990565b915061085f82610abd565b602082019050919050565b6000610877602083610990565b915061088282610ae6565b602082019050919050565b61089e610899826109f0565b610a0c565b82525050565b60006108b0828461088d565b60208201915081905092915050565b60006020820190506108d460008301846107d4565b92915050565b60006020820190506108ef60008301846107e3565b92915050565b600060208201905061090a60008301846107f2565b92915050565b6000602082019050818103600083015261092981610801565b9050919050565b6000602082019050818103600083015261094981610824565b9050919050565b6000602082019050818103600083015261096981610847565b9050919050565b600060208201905081810360008301526109898161086a565b9050919050565b600082825260208201905092915050565b60006109ac826109d0565b9050919050565b6000819050919050565b60008190506109cb82610b0f565b919050565b600073ffffffffffffffffffffffffffffffffffffffff82169050919050565b6000819050919050565b6000610a05826109bd565b9050919050565b6000819050919050565b7f4e487b7100000000000000000000000000000000000000000000000000000000600052602160045260246000fd5b7f4f776e61626c653a206e6577206f776e657220697320746865207a65726f206160008201527f6464726573730000000000000000000000000000000000000000000000000000602082015250565b7f50726f64756374732068617320616c7265616479206265656e20736f6c640000600082015250565b7f50726f647563747320646f65736e277420657869747300000000000000000000600082015250565b7f4f776e61626c653a2063616c6c6572206973206e6f7420746865206f776e6572600082015250565b60038110610b2057610b1f610a16565b5b50565b610b2c816109a1565b8114610b3757600080fd5b50565b610b43816109b3565b8114610b4e57600080fd5b50565b610b5a816109f0565b8114610b6557600080fd5b5056fea2646970667358221220d5b94b17b3224b1c03cb837059fc76cd12dcc97f985a23b4888827b5c441cc8c64736f6c63430008040033",
  "linkReferences": {},
  "deployedLinkReferences": {}
}