{
  "_format": "hh-sol-artifact-1",
  "contractName": "Product",
  "sourceName": "contracts/Product.sol",
  "abi": [
    {
      "anonymous": false,
      "inputs": [
        {
          "indexed": true,
          "internalType": "address",
          "name": "previousOwner",
          "type": "address"
        },
        {
          "indexed": true,
          "internalType": "address",
          "name": "newOwner",
          "type": "address"
        }
      ],
      "name": "OwnershipTransferred",
      "type": "event"
    },
    {
      "inputs": [
        {
          "internalType": "uint256",
          "name": "_productNumber",
          "type": "uint256"
        }
      ],
      "name": "buy",
      "outputs": [],
      "stateMutability": "nonpayable",
      "type": "function"
    },
    {
      "inputs": [
        {
          "internalType": "uint256",
          "name": "_productNumber",
          "type": "uint256"
        }
      ],
      "name": "getInfoOfProduct",
      "outputs": [
        {
          "internalType": "enum Product.status",
          "name": "",
          "type": "uint8"
        }
      ],
      "stateMutability": "view",
      "type": "function"
    },
    {
      "inputs": [],
      "name": "owner",
      "outputs": [
        {
          "internalType": "address",
          "name": "",
          "type": "address"
        }
      ],
      "stateMutability": "view",
      "type": "function"
    },
    {
      "inputs": [
        {
          "internalType": "uint256",
          "name": "",
          "type": "uint256"
        }
      ],
      "name": "productDetail",
      "outputs": [
        {
          "internalType": "uint256",
          "name": "manufacturedDate",
          "type": "uint256"
        },
        {
          "internalType": "uint256",
          "name": "productNumber",
          "type": "uint256"
        },
        {
          "internalType": "enum Product.status",
          "name": "status_type",
          "type": "uint8"
        }
      ],
      "stateMutability": "view",
      "type": "function"
    },
    {
      "inputs": [
        {
          "internalType": "uint256",
          "name": "_manufactureDate",
          "type": "uint256"
        },
        {
          "internalType": "uint256",
          "name": "_productNumber",
          "type": "uint256"
        }
      ],
      "name": "registerProduct",
      "outputs": [],
      "stateMutability": "nonpayable",
      "type": "function"
    },
    {
      "inputs": [],
      "name": "renounceOwnership",
      "outputs": [],
      "stateMutability": "nonpayable",
      "type": "function"
    },
    {
      "inputs": [
        {
          "internalType": "address",
          "name": "newOwner",
          "type": "address"
        }
      ],
      "name": "transferOwnership",
      "outputs": [],
      "stateMutability": "nonpayable",
      "type": "function"
    }
  ],
  "bytecode": "0x608060405234801561001057600080fd5b5061002d61002261003260201b60201c565b61003a60201b60201c565b6100fe565b600033905090565b60008060009054906101000a900473ffffffffffffffffffffffffffffffffffffffff169050816000806101000a81548173ffffffffffffffffffffffffffffffffffffffff021916908373ffffffffffffffffffffffffffffffffffffffff1602179055508173ffffffffffffffffffffffffffffffffffffffff168173ffffffffffffffffffffffffffffffffffffffff167f8be0079c531659141344cd1fd0a4f28419497f9722a3daafe3b4186f6b6457e060405160405180910390a35050565b610c3a8061010d6000396000f3fe608060405234801561001057600080fd5b506004361061007d5760003560e01c8063715018a61161005b578063715018a6146101005780638da5cb5b1461010a578063d96a094a14610128578063f2fde38b146101445761007d565b806330c332b61461008257806342f35885146100b257806370473bbb146100e4575b600080fd5b61009c6004803603810190610097919061084c565b610160565b6040516100a99190610985565b60405180910390f35b6100cc60048036038101906100c7919061084c565b610266565b6040516100db93929190610a20565b60405180910390f35b6100fe60048036038101906100f99190610875565b61029d565b005b6101086103f1565b005b6101126103f3565b60405161011f919061096a565b60405180910390f35b610142600480360381019061013d919061084c565b61041c565b005b61015e60048036038101906101599190610823565b610635565b005b6000816000600281111561019d577f4e487b7100000000000000000000000000000000000000000000000000000000600052602160045260246000fd5b6001600083815260200190815260200160002060020160009054906101000a900460ff1660028111156101f9577f4e487b7100000000000000000000000000000000000000000000000000000000600052602160045260246000fd5b141561023a576040517f08c379a0000000000000000000000000000000000000000000000000000000008152600401610231906109e0565b60405180910390fd5b6001600084815260200190815260200160002060020160009054906101000a900460ff16915050919050565b60016020528060005260406000206000915090508060000154908060010154908060020160009054906101000a900460ff16905083565b6102a561072d565b73ffffffffffffffffffffffffffffffffffffffff166102c36103f3565b73ffffffffffffffffffffffffffffffffffffffff1614610319576040517f08c379a000000000000000000000000000000000000000000000000000000000815260040161031090610a00565b60405180910390fd5b60405180606001604052808381526020018281526020016001600281111561036a577f4e487b7100000000000000000000000000000000000000000000000000000000600052602160045260246000fd5b81525060016000838152602001908152602001600020600082015181600001556020820151816001015560408201518160020160006101000a81548160ff021916908360028111156103e5577f4e487b7100000000000000000000000000000000000000000000000000000000600052602160045260246000fd5b02179055509050505050565b565b60008060009054906101000a900473ffffffffffffffffffffffffffffffffffffffff16905090565b8060006002811115610457577f4e487b7100000000000000000000000000000000000000000000000000000000600052602160045260246000fd5b6001600083815260200190815260200160002060020160009054906101000a900460ff1660028111156104b3577f4e487b7100000000000000000000000000000000000000000000000000000000600052602160045260246000fd5b14156104f4576040517f08c379a00000000000000000000000000000000000000000000000000000000081526004016104eb906109e0565b60405180910390fd5b816001600281111561052f577f4e487b7100000000000000000000000000000000000000000000000000000000600052602160045260246000fd5b6001600083815260200190815260200160002060020160009054906101000a900460ff16600281111561058b577f4e487b7100000000000000000000000000000000000000000000000000000000600052602160045260246000fd5b146105cb576040517f08c379a00000000000000000000000000000000000000000000000000000000081526004016105c2906109c0565b60405180910390fd5b60026001600085815260200190815260200160002060020160006101000a81548160ff0219169083600281111561062b577f4e487b7100000000000000000000000000000000000000000000000000000000600052602160045260246000fd5b0217905550505050565b61063d61072d565b73ffffffffffffffffffffffffffffffffffffffff1661065b6103f3565b73ffffffffffffffffffffffffffffffffffffffff16146106b1576040517f08c379a00000000000000000000000000000000000000000000000000000000081526004016106a890610a00565b60405180910390fd5b600073ffffffffffffffffffffffffffffffffffffffff168173ffffffffffffffffffffffffffffffffffffffff161415610721576040517f08c379a0000000000000000000000000000000000000000000000000000000008152600401610718906109a0565b60405180910390fd5b61072a81610735565b50565b600033905090565b60008060009054906101000a900473ffffffffffffffffffffffffffffffffffffffff169050816000806101000a81548173ffffffffffffffffffffffffffffffffffffffff021916908373ffffffffffffffffffffffffffffffffffffffff1602179055508173ffffffffffffffffffffffffffffffffffffffff168173ffffffffffffffffffffffffffffffffffffffff167f8be0079c531659141344cd1fd0a4f28419497f9722a3daafe3b4186f6b6457e060405160405180910390a35050565b60008135905061080881610bd6565b92915050565b60008135905061081d81610bed565b92915050565b60006020828403121561083557600080fd5b6000610843848285016107f9565b91505092915050565b60006020828403121561085e57600080fd5b600061086c8482850161080e565b91505092915050565b6000806040838503121561088857600080fd5b60006108968582860161080e565b92505060206108a78582860161080e565b9150509250929050565b6108ba81610a68565b82525050565b6108c981610ab7565b82525050565b60006108dc602683610a57565b91506108e782610af8565b604082019050919050565b60006108ff601e83610a57565b915061090a82610b47565b602082019050919050565b6000610922601683610a57565b915061092d82610b70565b602082019050919050565b6000610945602083610a57565b915061095082610b99565b602082019050919050565b61096481610aad565b82525050565b600060208201905061097f60008301846108b1565b92915050565b600060208201905061099a60008301846108c0565b92915050565b600060208201905081810360008301526109b9816108cf565b9050919050565b600060208201905081810360008301526109d9816108f2565b9050919050565b600060208201905081810360008301526109f981610915565b9050919050565b60006020820190508181036000830152610a1981610938565b9050919050565b6000606082019050610a35600083018661095b565b610a42602083018561095b565b610a4f60408301846108c0565b949350505050565b600082825260208201905092915050565b6000610a7382610a8d565b9050919050565b6000819050610a8882610bc2565b919050565b600073ffffffffffffffffffffffffffffffffffffffff82169050919050565b6000819050919050565b6000610ac282610a7a565b9050919050565b7f4e487b7100000000000000000000000000000000000000000000000000000000600052602160045260246000fd5b7f4f776e61626c653a206e6577206f776e657220697320746865207a65726f206160008201527f6464726573730000000000000000000000000000000000000000000000000000602082015250565b7f50726f64756374732068617320616c7265616479206265656e20736f6c640000600082015250565b7f50726f647563747320646f65736e277420657869747300000000000000000000600082015250565b7f4f776e61626c653a2063616c6c6572206973206e6f7420746865206f776e6572600082015250565b60038110610bd357610bd2610ac9565b5b50565b610bdf81610a68565b8114610bea57600080fd5b50565b610bf681610aad565b8114610c0157600080fd5b5056fea2646970667358221220fa25354d46ba9841fa1de4412c907ef559fa451fe5fab766e99d6e3509bfa1ac64736f6c63430008040033",
  "linkReferences": {},
  "deployedLinkReferences": {}
}