{
  "_format": "hh-sol-artifact-1",
  "contractName": "Product",
  "sourceName": "contracts/Product.sol",
  "abi": [
    {
      "anonymous": false,
      "inputs": [
        {
          "indexed": true,
          "internalType": "address",
          "name": "previousOwner",
          "type": "address"
        },
        {
          "indexed": true,
          "internalType": "address",
          "name": "newOwner",
          "type": "address"
        }
      ],
      "name": "OwnershipTransferred",
      "type": "event"
    },
    {
      "anonymous": false,
      "inputs": [
        {
          "indexed": false,
          "internalType": "uint256",
          "name": "productNumber",
          "type": "uint256"
        },
        {
          "indexed": false,
          "internalType": "bool",
          "name": "sold",
          "type": "bool"
        }
      ],
      "name": "Sold",
      "type": "event"
    },
    {
      "inputs": [
        {
          "internalType": "uint256",
          "name": "_productNumber",
          "type": "uint256"
        }
      ],
      "name": "buy",
      "outputs": [],
      "stateMutability": "nonpayable",
      "type": "function"
    },
    {
      "inputs": [
        {
          "internalType": "uint256",
          "name": "_productNumber",
          "type": "uint256"
        }
      ],
      "name": "getInfoOfProduct",
      "outputs": [
        {
          "internalType": "bool",
          "name": "",
          "type": "bool"
        }
      ],
      "stateMutability": "view",
      "type": "function"
    },
    {
      "inputs": [],
      "name": "owner",
      "outputs": [
        {
          "internalType": "address",
          "name": "",
          "type": "address"
        }
      ],
      "stateMutability": "view",
      "type": "function"
    },
    {
      "inputs": [
        {
          "internalType": "uint256",
          "name": "",
          "type": "uint256"
        }
      ],
      "name": "productDetail",
      "outputs": [
        {
          "internalType": "uint256",
          "name": "manufacturedDate",
          "type": "uint256"
        },
        {
          "internalType": "uint256",
          "name": "productNumber",
          "type": "uint256"
        },
        {
          "internalType": "bool",
          "name": "isSold",
          "type": "bool"
        }
      ],
      "stateMutability": "view",
      "type": "function"
    },
    {
      "inputs": [
        {
          "internalType": "uint256",
          "name": "_manufactureDate",
          "type": "uint256"
        },
        {
          "internalType": "uint256",
          "name": "_productNumber",
          "type": "uint256"
        }
      ],
      "name": "registerProduct",
      "outputs": [],
      "stateMutability": "nonpayable",
      "type": "function"
    },
    {
      "inputs": [],
      "name": "renounceOwnership",
      "outputs": [],
      "stateMutability": "nonpayable",
      "type": "function"
    },
    {
      "inputs": [
        {
          "internalType": "address",
          "name": "newOwner",
          "type": "address"
        }
      ],
      "name": "transferOwnership",
      "outputs": [],
      "stateMutability": "nonpayable",
      "type": "function"
    }
  ],
  "bytecode": "0x608060405234801561001057600080fd5b5061002d61002261003260201b60201c565b61003a60201b60201c565b6100fe565b600033905090565b60008060009054906101000a900473ffffffffffffffffffffffffffffffffffffffff169050816000806101000a81548173ffffffffffffffffffffffffffffffffffffffff021916908373ffffffffffffffffffffffffffffffffffffffff1602179055508173ffffffffffffffffffffffffffffffffffffffff168173ffffffffffffffffffffffffffffffffffffffff167f8be0079c531659141344cd1fd0a4f28419497f9722a3daafe3b4186f6b6457e060405160405180910390a35050565b61095f8061010d6000396000f3fe608060405234801561001057600080fd5b506004361061007d5760003560e01c8063715018a61161005b578063715018a6146101005780638da5cb5b1461010a578063d96a094a14610128578063f2fde38b146101445761007d565b806330c332b61461008257806342f35885146100b257806370473bbb146100e4575b600080fd5b61009c60048036038101906100979190610639565b610160565b6040516100a9919061074f565b60405180910390f35b6100cc60048036038101906100c79190610639565b61021a565b6040516100db939291906107ca565b60405180910390f35b6100fe60048036038101906100f99190610662565b610251565b005b610108610339565b005b61011261033b565b60405161011f9190610734565b60405180910390f35b610142600480360381019061013d9190610639565b610364565b005b61015e60048036038101906101599190610610565b610422565b005b6000818060016000838152602001908152602001600020600101541480156101af5750600015156001600083815260200190815260200160002060020160009054906101000a900460ff161515145b6101ee576040517f08c379a00000000000000000000000000000000000000000000000000000000081526004016101e59061078a565b60405180910390fd5b6001600084815260200190815260200160002060020160009054906101000a900460ff16915050919050565b60016020528060005260406000206000915090508060000154908060010154908060020160009054906101000a900460ff16905083565b61025961051a565b73ffffffffffffffffffffffffffffffffffffffff1661027761033b565b73ffffffffffffffffffffffffffffffffffffffff16146102cd576040517f08c379a00000000000000000000000000000000000000000000000000000000081526004016102c4906107aa565b60405180910390fd5b60405180606001604052808381526020018281526020016000151581525060016000838152602001908152602001600020600082015181600001556020820151816001015560408201518160020160006101000a81548160ff0219169083151502179055509050505050565b565b60008060009054906101000a900473ffffffffffffffffffffffffffffffffffffffff16905090565b808060016000838152602001908152602001600020600101541480156103b15750600015156001600083815260200190815260200160002060020160009054906101000a900460ff161515145b6103f0576040517f08c379a00000000000000000000000000000000000000000000000000000000081526004016103e79061078a565b60405180910390fd5b600180600084815260200190815260200160002060020160006101000a81548160ff0219169083151502179055505050565b61042a61051a565b73ffffffffffffffffffffffffffffffffffffffff1661044861033b565b73ffffffffffffffffffffffffffffffffffffffff161461049e576040517f08c379a0000000000000000000000000000000000000000000000000000000008152600401610495906107aa565b60405180910390fd5b600073ffffffffffffffffffffffffffffffffffffffff168173ffffffffffffffffffffffffffffffffffffffff16141561050e576040517f08c379a00000000000000000000000000000000000000000000000000000000081526004016105059061076a565b60405180910390fd5b61051781610522565b50565b600033905090565b60008060009054906101000a900473ffffffffffffffffffffffffffffffffffffffff169050816000806101000a81548173ffffffffffffffffffffffffffffffffffffffff021916908373ffffffffffffffffffffffffffffffffffffffff1602179055508173ffffffffffffffffffffffffffffffffffffffff168173ffffffffffffffffffffffffffffffffffffffff167f8be0079c531659141344cd1fd0a4f28419497f9722a3daafe3b4186f6b6457e060405160405180910390a35050565b6000813590506105f5816108fb565b92915050565b60008135905061060a81610912565b92915050565b60006020828403121561062257600080fd5b6000610630848285016105e6565b91505092915050565b60006020828403121561064b57600080fd5b6000610659848285016105fb565b91505092915050565b6000806040838503121561067557600080fd5b6000610683858286016105fb565b9250506020610694858286016105fb565b9150509250929050565b6106a781610812565b82525050565b6106b681610824565b82525050565b60006106c9602683610801565b91506106d48261085a565b604082019050919050565b60006106ec601683610801565b91506106f7826108a9565b602082019050919050565b600061070f602083610801565b915061071a826108d2565b602082019050919050565b61072e81610850565b82525050565b6000602082019050610749600083018461069e565b92915050565b600060208201905061076460008301846106ad565b92915050565b60006020820190508181036000830152610783816106bc565b9050919050565b600060208201905081810360008301526107a3816106df565b9050919050565b600060208201905081810360008301526107c381610702565b9050919050565b60006060820190506107df6000830186610725565b6107ec6020830185610725565b6107f960408301846106ad565b949350505050565b600082825260208201905092915050565b600061081d82610830565b9050919050565b60008115159050919050565b600073ffffffffffffffffffffffffffffffffffffffff82169050919050565b6000819050919050565b7f4f776e61626c653a206e6577206f776e657220697320746865207a65726f206160008201527f6464726573730000000000000000000000000000000000000000000000000000602082015250565b7f50726f647563747320646f65736e277420657869747300000000000000000000600082015250565b7f4f776e61626c653a2063616c6c6572206973206e6f7420746865206f776e6572600082015250565b61090481610812565b811461090f57600080fd5b50565b61091b81610850565b811461092657600080fd5b5056fea26469706673582212209bfd9a56833ea76bb1a278d70140cd6dbb2d9e5b9643453280d8201bb0870ba964736f6c63430008040033",
  "linkReferences": {},
  "deployedLinkReferences": {}
}